{
  "contractName": "CurveExchange",
  "abi": [
    {
      "inputs": [
        {
          "internalType": "int128",
          "name": "fromTokenIndex",
          "type": "int128"
        },
        {
          "internalType": "int128",
          "name": "toTokenIndex",
          "type": "int128"
        }
      ],
      "name": "swapAll",
      "outputs": [],
      "stateMutability": "nonpayable",
      "type": "function"
    }
  ],
  "bytecode": "0x60806040526040518060600160405280736b175474e89094c44da98b954eedeac495271d0f73ffffffffffffffffffffffffffffffffffffffff1673ffffffffffffffffffffffffffffffffffffffff16815260200173a0b86991c6218b36c1d19d4a2e9eb0ce3606eb4873ffffffffffffffffffffffffffffffffffffffff1673ffffffffffffffffffffffffffffffffffffffff16815260200173dac17f958d2ee523a2206206994597c13d831ec773ffffffffffffffffffffffffffffffffffffffff1673ffffffffffffffffffffffffffffffffffffffff1681525060009060036100ef929190610102565b503480156100fc57600080fd5b5061019c565b826003810192821561016e579160200282015b8281111561016d5782518260006101000a81548173ffffffffffffffffffffffffffffffffffffffff021916908373ffffffffffffffffffffffffffffffffffffffff16021790555091602001919060010190610115565b5b50905061017b919061017f565b5090565b5b80821115610198576000816000905550600101610180565b5090565b610d25806101ab6000396000f3fe608060405234801561001057600080fd5b506004361061002b5760003560e01c80637e10492314610030575b600080fd5b61004a6004803603810190610045919061076c565b61004c565b005b600080836fffffffffffffffffffffffffffffffff1660038110610073576100726107ac565b5b0160009054906101000a900473ffffffffffffffffffffffffffffffffffffffff16905060008173ffffffffffffffffffffffffffffffffffffffff166370a08231306040518263ffffffff1660e01b81526004016100d2919061081c565b602060405180830381865afa1580156100ef573d6000803e3d6000fd5b505050506040513d601f19601f82011682018060405250810190610113919061086d565b905060006001905061015a73bebc44782c7db0a1a60cb6fe97d0b483032ff1c7838573ffffffffffffffffffffffffffffffffffffffff166102dc9092919063ffffffff16565b73bebc44782c7db0a1a60cb6fe97d0b483032ff1c773ffffffffffffffffffffffffffffffffffffffff16633df02124868685856040518563ffffffff1660e01b81526004016101ad94939291906108b8565b600060405180830381600087803b1580156101c757600080fd5b505af11580156101db573d6000803e3d6000fd5b50505050600080856fffffffffffffffffffffffffffffffff1660038110610206576102056107ac565b5b0160009054906101000a900473ffffffffffffffffffffffffffffffffffffffff16905060008173ffffffffffffffffffffffffffffffffffffffff166370a08231306040518263ffffffff1660e01b8152600401610265919061081c565b602060405180830381865afa158015610282573d6000803e3d6000fd5b505050506040513d601f19601f820116820180604052508101906102a6919061086d565b90506102d333828473ffffffffffffffffffffffffffffffffffffffff1661042b9092919063ffffffff16565b50505050505050565b6000811480610366575060008373ffffffffffffffffffffffffffffffffffffffff1663dd62ed3e30856040518363ffffffff1660e01b81526004016103239291906108fd565b602060405180830381865afa158015610340573d6000803e3d6000fd5b505050506040513d601f19601f82011682018060405250810190610364919061086d565b145b6103a5576040517f08c379a000000000000000000000000000000000000000000000000000000000815260040161039c906109a9565b60405180910390fd5b6104268363095ea7b360e01b84846040516024016103c49291906109c9565b604051602081830303815290604052907bffffffffffffffffffffffffffffffffffffffffffffffffffffffff19166020820180517bffffffffffffffffffffffffffffffffffffffffffffffffffffffff83818316178352505050506104b1565b505050565b6104ac8363a9059cbb60e01b848460405160240161044a9291906109c9565b604051602081830303815290604052907bffffffffffffffffffffffffffffffffffffffffffffffffffffffff19166020820180517bffffffffffffffffffffffffffffffffffffffffffffffffffffffff83818316178352505050506104b1565b505050565b6000610513826040518060400160405280602081526020017f5361666545524332303a206c6f772d6c6576656c2063616c6c206661696c65648152508573ffffffffffffffffffffffffffffffffffffffff166105789092919063ffffffff16565b905060008151111561057357808060200190518101906105339190610a2a565b610572576040517f08c379a000000000000000000000000000000000000000000000000000000000815260040161056990610ac9565b60405180910390fd5b5b505050565b60606105878484600085610590565b90509392505050565b6060824710156105d5576040517f08c379a00000000000000000000000000000000000000000000000000000000081526004016105cc90610b5b565b60405180910390fd5b6105de856106a4565b61061d576040517f08c379a000000000000000000000000000000000000000000000000000000000815260040161061490610bc7565b60405180910390fd5b6000808673ffffffffffffffffffffffffffffffffffffffff1685876040516106469190610c61565b60006040518083038185875af1925050503d8060008114610683576040519150601f19603f3d011682016040523d82523d6000602084013e610688565b606091505b50915091506106988282866106c7565b92505050949350505050565b6000808273ffffffffffffffffffffffffffffffffffffffff163b119050919050565b606083156106d757829050610727565b6000835111156106ea5782518084602001fd5b816040517f08c379a000000000000000000000000000000000000000000000000000000000815260040161071e9190610ccd565b60405180910390fd5b9392505050565b600080fd5b600081600f0b9050919050565b61074981610733565b811461075457600080fd5b50565b60008135905061076681610740565b92915050565b600080604083850312156107835761078261072e565b5b600061079185828601610757565b92505060206107a285828601610757565b9150509250929050565b7f4e487b7100000000000000000000000000000000000000000000000000000000600052603260045260246000fd5b600073ffffffffffffffffffffffffffffffffffffffff82169050919050565b6000610806826107db565b9050919050565b610816816107fb565b82525050565b6000602082019050610831600083018461080d565b92915050565b6000819050919050565b61084a81610837565b811461085557600080fd5b50565b60008151905061086781610841565b92915050565b6000602082840312156108835761088261072e565b5b600061089184828501610858565b91505092915050565b6108a381610733565b82525050565b6108b281610837565b82525050565b60006080820190506108cd600083018761089a565b6108da602083018661089a565b6108e760408301856108a9565b6108f460608301846108a9565b95945050505050565b6000604082019050610912600083018561080d565b61091f602083018461080d565b9392505050565b600082825260208201905092915050565b7f5361666545524332303a20617070726f76652066726f6d206e6f6e2d7a65726f60008201527f20746f206e6f6e2d7a65726f20616c6c6f77616e636500000000000000000000602082015250565b6000610993603683610926565b915061099e82610937565b604082019050919050565b600060208201905081810360008301526109c281610986565b9050919050565b60006040820190506109de600083018561080d565b6109eb60208301846108a9565b9392505050565b60008115159050919050565b610a07816109f2565b8114610a1257600080fd5b50565b600081519050610a24816109fe565b92915050565b600060208284031215610a4057610a3f61072e565b5b6000610a4e84828501610a15565b91505092915050565b7f5361666545524332303a204552433230206f7065726174696f6e20646964206e60008201527f6f74207375636365656400000000000000000000000000000000000000000000602082015250565b6000610ab3602a83610926565b9150610abe82610a57565b604082019050919050565b60006020820190508181036000830152610ae281610aa6565b9050919050565b7f416464726573733a20696e73756666696369656e742062616c616e636520666f60008201527f722063616c6c0000000000000000000000000000000000000000000000000000602082015250565b6000610b45602683610926565b9150610b5082610ae9565b604082019050919050565b60006020820190508181036000830152610b7481610b38565b9050919050565b7f416464726573733a2063616c6c20746f206e6f6e2d636f6e7472616374000000600082015250565b6000610bb1601d83610926565b9150610bbc82610b7b565b602082019050919050565b60006020820190508181036000830152610be081610ba4565b9050919050565b600081519050919050565b600081905092915050565b60005b83811015610c1b578082015181840152602081019050610c00565b83811115610c2a576000848401525b50505050565b6000610c3b82610be7565b610c458185610bf2565b9350610c55818560208601610bfd565b80840191505092915050565b6000610c6d8284610c30565b915081905092915050565b600081519050919050565b6000601f19601f8301169050919050565b6000610c9f82610c78565b610ca98185610926565b9350610cb9818560208601610bfd565b610cc281610c83565b840191505092915050565b60006020820190508181036000830152610ce78184610c94565b90509291505056fea26469706673582212204cf83c9a8460b1bc72a33d6fd8cc700d31252ad0be8a96ce20cd693e943e643964736f6c634300080d0033",
  "immutableReferences": {},
  "source": "// SPDX-License-Identifier: MIT\npragma solidity ^0.8.3;\n\nimport \"@openzeppelin/contracts/token/ERC20/utils/SafeERC20.sol\";\n\ninterface StableSwap {\n    function exchange(int128 i, int128 j, uint256 dx, uint256 min_dy) external;\n}\n\ncontract CurveExchange {\n    using SafeERC20 for IERC20; // Because there is a bug in USDT's contract erroring transfer txs (see: https://ethereum.stackexchange.com/questions/64517/how-to-transfer-and-transferfrom-on-the-tether-smart-contract-from-another-smart/89567#89567)\n\n    address constant private DAI_ADDRESS = 0x6B175474E89094C44Da98b954EedeAC495271d0F;\n    address constant private USDC_ADDRESS = 0xA0b86991c6218b36c1d19D4a2e9Eb0cE3606eB48;\n    address constant private USDT_ADDRESS = 0xdAC17F958D2ee523a2206206994597C13D831ec7;\n    IERC20 constant private DAI = IERC20(DAI_ADDRESS);\n    IERC20 constant private USDC = IERC20(USDC_ADDRESS);\n    IERC20 constant private USDT = IERC20(USDT_ADDRESS);\n\n    IERC20[3] token = [DAI, USDC, USDT];\n\n    address constant private STABLESWAP_ADDRESS = 0xbEbc44782C7dB0a1A60Cb6fe97d0b483032FF1C7;\n    StableSwap constant private stableSwap = StableSwap(STABLESWAP_ADDRESS);\n\n    function swapAll(int128 fromTokenIndex, int128 toTokenIndex) public {\n        IERC20 fromToken = token[uint128(fromTokenIndex)];\n        uint256 balFrom = fromToken.balanceOf(address(this));\n        uint256 minAmount = 1;\n        fromToken.safeApprove(STABLESWAP_ADDRESS, balFrom);\n\n        stableSwap.exchange(fromTokenIndex, toTokenIndex, balFrom, minAmount);\n\n        IERC20 toToken = token[uint128(toTokenIndex)];\n        uint256 balTo = toToken.balanceOf(address(this));\n\n        toToken.safeTransfer(msg.sender, balTo);\n    }\n}\n",
  "sourcePath": "/root/DeFiSandbox/contracts/Exchange.sol",
  "compiler": {
    "name": "solc",
    "version": "0.8.13+commit.abaa5c0e.Emscripten.clang"
  },
  "schemaVersion": "3.4.7",
  "updatedAt": "2022-05-19T13:01:19.794Z",
  "devdoc": {
    "kind": "dev",
    "methods": {},
    "version": 1
  },
  "userdoc": {
    "kind": "user",
    "methods": {},
    "version": 1
  }
}